{
  "contractName": "Tomb",
  "abi": [
    {
      "constant": true,
      "inputs": [],
      "name": "moralsCount",
      "outputs": [
        {
          "name": "",
          "type": "uint256"
        }
      ],
      "payable": false,
      "stateMutability": "view",
      "type": "function"
    },
    {
      "constant": true,
      "inputs": [
        {
          "name": "",
          "type": "uint256"
        }
      ],
      "name": "morals",
      "outputs": [
        {
          "name": "id",
          "type": "uint256"
        },
        {
          "name": "name",
          "type": "string"
        },
        {
          "name": "RIPCount",
          "type": "uint256"
        },
        {
          "name": "died",
          "type": "string"
        }
      ],
      "payable": false,
      "stateMutability": "view",
      "type": "function"
    },
    {
      "inputs": [],
      "payable": false,
      "stateMutability": "nonpayable",
      "type": "constructor"
    }
  ],
  "bytecode": "0x608060405234801561001057600080fd5b506100946040805190810160405280601181526020017f43687269737469616e2048797567656e730000000000000000000000000000008152506040805190810160405280600c81526020017f4a756c7920382c2031363935000000000000000000000000000000000000000081525061011c640100000000026401000000009004565b6101176040805190810160405280600d81526020017f49736161632c204e6577746f6e000000000000000000000000000000000000008152506040805190810160405280600e81526020017f6d617263682033312c203137323700000000000000000000000000000000000081525061011c640100000000026401000000009004565b610261565b60016000815480929190600101919050555060806040519081016040528060015481526020018381526020016000815260200182815250600080600154815260200190815260200160002060008201518160000155602082015181600101908051906020019061018d9291906101bc565b506040820151816002015560608201518160030190805190602001906101b49291906101bc565b509050505050565b828054600181600116156101000203166002900490600052602060002090601f016020900481019282601f106101fd57805160ff191683800117855561022b565b8280016001018555821561022b579182015b8281111561022a57825182559160200191906001019061020f565b5b509050610238919061023c565b5090565b61025e91905b8082111561025a576000816000905550600101610242565b5090565b90565b61032e806102706000396000f30060806040526004361061004c576000357c0100000000000000000000000000000000000000000000000000000000900463ffffffff1680633681f5a414610051578063c02614111461007c575b600080fd5b34801561005d57600080fd5b5061006661019c565b6040518082815260200191505060405180910390f35b34801561008857600080fd5b506100a7600480360381019080803590602001909291905050506101a2565b604051808581526020018060200184815260200180602001838103835286818151815260200191508051906020019080838360005b838110156100f75780820151818401526020810190506100dc565b50505050905090810190601f1680156101245780820380516001836020036101000a031916815260200191505b50838103825284818151815260200191508051906020019080838360005b8381101561015d578082015181840152602081019050610142565b50505050905090810190601f16801561018a5780820380516001836020036101000a031916815260200191505b50965050505050505060405180910390f35b60015481565b6000602052806000526040600020600091509050806000015490806001018054600181600116156101000203166002900480601f0160208091040260200160405190810160405280929190818152602001828054600181600116156101000203166002900480156102545780601f1061022957610100808354040283529160200191610254565b820191906000526020600020905b81548152906001019060200180831161023757829003601f168201915b505050505090806002015490806003018054600181600116156101000203166002900480601f0160208091040260200160405190810160405280929190818152602001828054600181600116156101000203166002900480156102f85780601f106102cd576101008083540402835291602001916102f8565b820191906000526020600020905b8154815290600101906020018083116102db57829003601f168201915b50505050509050845600a165627a7a72305820c21a4beb36c8bfc22ddf08dc8389ac9e264fbe98e7faf0252055d27679c58f340029",
  "source": "pragma solidity >=0.4.22 <0.8.0;\n\ncontract Tomb {\n\n    struct Moral {\n        uint id;\n        string name;\n        uint RIPCount;\n        string died;\n    }\n\n    mapping(uint => Moral) public morals;\n\n    // Store death Count\n    uint public moralsCount;\n\n    //Constructor\n    constructor () public {\n        addmorals(\"Christian Hyugens\", \"July 8, 1695\");\n        addmorals(\"Isaac, Newton\", \"march 31, 1727\");\n    }\n\n    function addmorals (string _name, string _passday) private {\n        moralsCount ++;\n        morals[moralsCount] = Moral(moralsCount, _name, 0, _passday);\n    }\n\n}",
  "sourcePath": "/Users/tianyuyao/Documents/CU/EE 6883/decentraltomb/contracts/Tomb.sol",
  "compiler": {
    "name": "solc",
    "version": "0.4.26+commit.4563c3fc.Emscripten.clang"
  },
  "schemaVersion": "3.4.7",
  "updatedAt": "2022-05-11T07:53:55.460Z",
  "networkType": "ethereum",
  "devdoc": {
    "methods": {}
  },
  "userdoc": {
    "methods": {}
  }
}