{
  "contractName": "Tomb",
  "abi": [
    {
      "inputs": [],
      "stateMutability": "nonpayable",
      "type": "constructor"
    },
    {
      "inputs": [
        {
          "internalType": "uint256",
          "name": "",
          "type": "uint256"
        }
      ],
      "name": "morals",
      "outputs": [
        {
          "internalType": "uint256",
          "name": "id",
          "type": "uint256"
        },
        {
          "internalType": "string",
          "name": "name",
          "type": "string"
        },
        {
          "internalType": "uint256",
          "name": "RIPCount",
          "type": "uint256"
        },
        {
          "internalType": "string",
          "name": "died",
          "type": "string"
        }
      ],
      "stateMutability": "view",
      "type": "function",
      "constant": true
    },
    {
      "inputs": [],
      "name": "moralsCount",
      "outputs": [
        {
          "internalType": "uint256",
          "name": "",
          "type": "uint256"
        }
      ],
      "stateMutability": "view",
      "type": "function",
      "constant": true
    },
    {
      "inputs": [
        {
          "internalType": "string",
          "name": "_name",
          "type": "string"
        },
        {
          "internalType": "string",
          "name": "_passday",
          "type": "string"
        }
      ],
      "name": "addmorals",
      "outputs": [],
      "stateMutability": "nonpayable",
      "type": "function"
    },
    {
      "inputs": [
        {
          "internalType": "uint256",
          "name": "_id",
          "type": "uint256"
        }
      ],
      "name": "payRespect",
      "outputs": [],
      "stateMutability": "nonpayable",
      "type": "function"
    }
  ],
  "bytecode": "0x60806040523480156200001157600080fd5b506200008e6040518060400160405280601181526020017f43687269737469616e2048797567656e730000000000000000000000000000008152506040518060400160405280600c81526020017f4a756c7920382c203136393500000000000000000000000000000000000000008152506200011060201b60201c565b6200010a6040518060400160405280600d81526020017f49736161632c204e6577746f6e000000000000000000000000000000000000008152506040518060400160405280600e81526020017f6d617263682033312c20313732370000000000000000000000000000000000008152506200011060201b60201c565b62000355565b600160008154809291906200012590620002a4565b919050555060405180608001604052806001548152602001838152602001600081526020018281525060008060015481526020019081526020016000206000820151816000015560208201518160010190805190602001906200018a929190620001bb565b50604082015181600201556060820151816003019080519060200190620001b3929190620001bb565b509050505050565b828054620001c99062000320565b90600052602060002090601f016020900481019282620001ed576000855562000239565b82601f106200020857805160ff191683800117855562000239565b8280016001018555821562000239579182015b82811115620002385782518255916020019190600101906200021b565b5b5090506200024891906200024c565b5090565b5b80821115620002675760008160009055506001016200024d565b5090565b7f4e487b7100000000000000000000000000000000000000000000000000000000600052601160045260246000fd5b6000819050919050565b6000620002b1826200029a565b91507fffffffffffffffffffffffffffffffffffffffffffffffffffffffffffffffff8203620002e657620002e56200026b565b5b600182019050919050565b7f4e487b7100000000000000000000000000000000000000000000000000000000600052602260045260246000fd5b600060028204905060018216806200033957607f821691505b6020821081036200034f576200034e620002f1565b5b50919050565b6107f980620003656000396000f3fe608060405234801561001057600080fd5b506004361061004c5760003560e01c80633681f5a414610051578063771865b11461006f578063c02614111461008b578063eb9615f6146100be575b600080fd5b6100596100da565b60405161006691906103cb565b60405180910390f35b61008960048036038101906100849190610426565b6100e0565b005b6100a560048036038101906100a09190610426565b61012a565b6040516100b594939291906104ec565b60405180910390f35b6100d860048036038101906100d39190610674565b61026a565b005b60015481565b600181101580156100f357506001548111155b6100fc57600080fd5b60008082815260200190815260200160002060020160008154809291906101229061071b565b919050555050565b600060205280600052604060002060009150905080600001549080600101805461015390610792565b80601f016020809104026020016040519081016040528092919081815260200182805461017f90610792565b80156101cc5780601f106101a1576101008083540402835291602001916101cc565b820191906000526020600020905b8154815290600101906020018083116101af57829003601f168201915b5050505050908060020154908060030180546101e790610792565b80601f016020809104026020016040519081016040528092919081815260200182805461021390610792565b80156102605780601f1061023557610100808354040283529160200191610260565b820191906000526020600020905b81548152906001019060200180831161024357829003601f168201915b5050505050905084565b6001600081548092919061027d9061071b565b919050555060405180608001604052806001548152602001838152602001600081526020018281525060008060015481526020019081526020016000206000820151816000015560208201518160010190805190602001906102e092919061030f565b5060408201518160020155606082015181600301908051906020019061030792919061030f565b509050505050565b82805461031b90610792565b90600052602060002090601f01602090048101928261033d5760008555610384565b82601f1061035657805160ff1916838001178555610384565b82800160010185558215610384579182015b82811115610383578251825591602001919060010190610368565b5b5090506103919190610395565b5090565b5b808211156103ae576000816000905550600101610396565b5090565b6000819050919050565b6103c5816103b2565b82525050565b60006020820190506103e060008301846103bc565b92915050565b6000604051905090565b600080fd5b600080fd5b610403816103b2565b811461040e57600080fd5b50565b600081359050610420816103fa565b92915050565b60006020828403121561043c5761043b6103f0565b5b600061044a84828501610411565b91505092915050565b600081519050919050565b600082825260208201905092915050565b60005b8381101561048d578082015181840152602081019050610472565b8381111561049c576000848401525b50505050565b6000601f19601f8301169050919050565b60006104be82610453565b6104c8818561045e565b93506104d881856020860161046f565b6104e1816104a2565b840191505092915050565b600060808201905061050160008301876103bc565b818103602083015261051381866104b3565b905061052260408301856103bc565b818103606083015261053481846104b3565b905095945050505050565b600080fd5b600080fd5b7f4e487b7100000000000000000000000000000000000000000000000000000000600052604160045260246000fd5b610581826104a2565b810181811067ffffffffffffffff821117156105a05761059f610549565b5b80604052505050565b60006105b36103e6565b90506105bf8282610578565b919050565b600067ffffffffffffffff8211156105df576105de610549565b5b6105e8826104a2565b9050602081019050919050565b82818337600083830152505050565b6000610617610612846105c4565b6105a9565b90508281526020810184848401111561063357610632610544565b5b61063e8482856105f5565b509392505050565b600082601f83011261065b5761065a61053f565b5b813561066b848260208601610604565b91505092915050565b6000806040838503121561068b5761068a6103f0565b5b600083013567ffffffffffffffff8111156106a9576106a86103f5565b5b6106b585828601610646565b925050602083013567ffffffffffffffff8111156106d6576106d56103f5565b5b6106e285828601610646565b9150509250929050565b7f4e487b7100000000000000000000000000000000000000000000000000000000600052601160045260246000fd5b6000610726826103b2565b91507fffffffffffffffffffffffffffffffffffffffffffffffffffffffffffffffff8203610758576107576106ec565b5b600182019050919050565b7f4e487b7100000000000000000000000000000000000000000000000000000000600052602260045260246000fd5b600060028204905060018216806107aa57607f821691505b6020821081036107bd576107bc610763565b5b5091905056fea264697066735822122057f6ffab4476dde77caee57e65c8cbfe308add763bd9d950d2d2e75e99adf18764736f6c634300080d0033",
  "immutableReferences": {},
  "source": "// SPDX-License-Identifier: MIT\npragma solidity ^0.8.0;\n\ncontract Tomb {\n\n    struct Moral {\n        uint id;\n        string name;\n        uint RIPCount;\n        string died;\n    }\n\n    mapping(uint => Moral) public morals;\n\n    // Store death Count\n    uint public moralsCount;\n\n    //Constructor\n    constructor () {\n        addmorals(\"Christian Hyugens\", \"July 8, 1695\");\n        addmorals(\"Isaac, Newton\", \"march 31, 1727\");\n    }\n\n    function addmorals (string memory _name, string memory _passday) public {\n        moralsCount ++;\n        morals[moralsCount] = Moral(moralsCount, _name, 0, _passday);\n    }\n\n    function payRespect (uint _id) public {\n\n        // restrict pay respect only to existed tomb\n        require(_id >= 1 && _id <= moralsCount);\n\n        morals[_id].RIPCount ++;\n    }\n\n}",
  "sourcePath": "/Users/tianyuyao/Documents/CU/EE 6883/decentraltomb/contracts/Tomb.sol",
  "compiler": {
    "name": "solc",
    "version": "0.8.13+commit.abaa5c0e.Emscripten.clang"
  },
  "schemaVersion": "3.4.7",
  "updatedAt": "2022-05-12T01:57:17.042Z",
  "networkType": "ethereum",
  "devdoc": {
    "kind": "dev",
    "methods": {},
    "version": 1
  },
  "userdoc": {
    "kind": "user",
    "methods": {},
    "version": 1
  }
}