{
  "contractName": "Tomb",
  "abi": [
    {
      "inputs": [],
      "stateMutability": "nonpayable",
      "type": "constructor"
    },
    {
      "inputs": [
        {
          "internalType": "uint256",
          "name": "",
          "type": "uint256"
        }
      ],
      "name": "morals",
      "outputs": [
        {
          "internalType": "uint256",
          "name": "id",
          "type": "uint256"
        },
        {
          "internalType": "string",
          "name": "name",
          "type": "string"
        },
        {
          "internalType": "uint256",
          "name": "RIPCount",
          "type": "uint256"
        },
        {
          "internalType": "string",
          "name": "died",
          "type": "string"
        }
      ],
      "stateMutability": "view",
      "type": "function",
      "constant": true
    },
    {
      "inputs": [],
      "name": "moralsCount",
      "outputs": [
        {
          "internalType": "uint256",
          "name": "",
          "type": "uint256"
        }
      ],
      "stateMutability": "view",
      "type": "function",
      "constant": true
    },
    {
      "inputs": [
        {
          "internalType": "string",
          "name": "_name",
          "type": "string"
        },
        {
          "internalType": "string",
          "name": "_passday",
          "type": "string"
        }
      ],
      "name": "addmorals",
      "outputs": [],
      "stateMutability": "nonpayable",
      "type": "function"
    },
    {
      "inputs": [
        {
          "internalType": "uint256",
          "name": "_id",
          "type": "uint256"
        }
      ],
      "name": "payRespect",
      "outputs": [],
      "stateMutability": "nonpayable",
      "type": "function"
    }
  ],
  "bytecode": "0x60806040523480156200001157600080fd5b506200008e6040518060400160405280601181526020017f43687269737469616e2048797567656e730000000000000000000000000000008152506040518060400160405280600c81526020017f4a756c7920382c203136393500000000000000000000000000000000000000008152506200011060201b60201c565b6200010a6040518060400160405280600d81526020017f49736161632c204e6577746f6e000000000000000000000000000000000000008152506040518060400160405280600e81526020017f6d617263682033312c20313732370000000000000000000000000000000000008152506200011060201b60201c565b62000355565b600160008154809291906200012590620002a4565b919050555060405180608001604052806001548152602001838152602001600081526020018281525060008060015481526020019081526020016000206000820151816000015560208201518160010190805190602001906200018a929190620001bb565b50604082015181600201556060820151816003019080519060200190620001b3929190620001bb565b509050505050565b828054620001c99062000320565b90600052602060002090601f016020900481019282620001ed576000855562000239565b82601f106200020857805160ff191683800117855562000239565b8280016001018555821562000239579182015b82811115620002385782518255916020019190600101906200021b565b5b5090506200024891906200024c565b5090565b5b80821115620002675760008160009055506001016200024d565b5090565b7f4e487b7100000000000000000000000000000000000000000000000000000000600052601160045260246000fd5b6000819050919050565b6000620002b1826200029a565b91507fffffffffffffffffffffffffffffffffffffffffffffffffffffffffffffffff8203620002e657620002e56200026b565b5b600182019050919050565b7f4e487b7100000000000000000000000000000000000000000000000000000000600052602260045260246000fd5b600060028204905060018216806200033957607f821691505b6020821081036200034f576200034e620002f1565b5b50919050565b6107dd80620003656000396000f3fe608060405234801561001057600080fd5b506004361061004c5760003560e01c80633681f5a414610051578063771865b11461006f578063c02614111461008b578063eb9615f6146100be575b600080fd5b6100596100da565b60405161006691906103af565b60405180910390f35b6100896004803603810190610084919061040a565b6100e0565b005b6100a560048036038101906100a0919061040a565b61010e565b6040516100b594939291906104d0565b60405180910390f35b6100d860048036038101906100d39190610658565b61024e565b005b60015481565b6000808281526020019081526020016000206002016000815480929190610106906106ff565b919050555050565b600060205280600052604060002060009150905080600001549080600101805461013790610776565b80601f016020809104026020016040519081016040528092919081815260200182805461016390610776565b80156101b05780601f10610185576101008083540402835291602001916101b0565b820191906000526020600020905b81548152906001019060200180831161019357829003601f168201915b5050505050908060020154908060030180546101cb90610776565b80601f01602080910402602001604051908101604052809291908181526020018280546101f790610776565b80156102445780601f1061021957610100808354040283529160200191610244565b820191906000526020600020905b81548152906001019060200180831161022757829003601f168201915b5050505050905084565b60016000815480929190610261906106ff565b919050555060405180608001604052806001548152602001838152602001600081526020018281525060008060015481526020019081526020016000206000820151816000015560208201518160010190805190602001906102c49291906102f3565b506040820151816002015560608201518160030190805190602001906102eb9291906102f3565b509050505050565b8280546102ff90610776565b90600052602060002090601f0160209004810192826103215760008555610368565b82601f1061033a57805160ff1916838001178555610368565b82800160010185558215610368579182015b8281111561036757825182559160200191906001019061034c565b5b5090506103759190610379565b5090565b5b8082111561039257600081600090555060010161037a565b5090565b6000819050919050565b6103a981610396565b82525050565b60006020820190506103c460008301846103a0565b92915050565b6000604051905090565b600080fd5b600080fd5b6103e781610396565b81146103f257600080fd5b50565b600081359050610404816103de565b92915050565b6000602082840312156104205761041f6103d4565b5b600061042e848285016103f5565b91505092915050565b600081519050919050565b600082825260208201905092915050565b60005b83811015610471578082015181840152602081019050610456565b83811115610480576000848401525b50505050565b6000601f19601f8301169050919050565b60006104a282610437565b6104ac8185610442565b93506104bc818560208601610453565b6104c581610486565b840191505092915050565b60006080820190506104e560008301876103a0565b81810360208301526104f78186610497565b905061050660408301856103a0565b81810360608301526105188184610497565b905095945050505050565b600080fd5b600080fd5b7f4e487b7100000000000000000000000000000000000000000000000000000000600052604160045260246000fd5b61056582610486565b810181811067ffffffffffffffff821117156105845761058361052d565b5b80604052505050565b60006105976103ca565b90506105a3828261055c565b919050565b600067ffffffffffffffff8211156105c3576105c261052d565b5b6105cc82610486565b9050602081019050919050565b82818337600083830152505050565b60006105fb6105f6846105a8565b61058d565b90508281526020810184848401111561061757610616610528565b5b6106228482856105d9565b509392505050565b600082601f83011261063f5761063e610523565b5b813561064f8482602086016105e8565b91505092915050565b6000806040838503121561066f5761066e6103d4565b5b600083013567ffffffffffffffff81111561068d5761068c6103d9565b5b6106998582860161062a565b925050602083013567ffffffffffffffff8111156106ba576106b96103d9565b5b6106c68582860161062a565b9150509250929050565b7f4e487b7100000000000000000000000000000000000000000000000000000000600052601160045260246000fd5b600061070a82610396565b91507fffffffffffffffffffffffffffffffffffffffffffffffffffffffffffffffff820361073c5761073b6106d0565b5b600182019050919050565b7f4e487b7100000000000000000000000000000000000000000000000000000000600052602260045260246000fd5b6000600282049050600182168061078e57607f821691505b6020821081036107a1576107a0610747565b5b5091905056fea2646970667358221220c60ef80b57469a8f5e821918e2c07e3c5d6b8c9663b62dc97cdcc683c4f7b0ef64736f6c634300080d0033",
  "immutableReferences": {},
  "source": "// SPDX-License-Identifier: MIT\npragma solidity ^0.8.0;\n\ncontract Tomb {\n\n    struct Moral {\n        uint id;\n        string name;\n        uint RIPCount;\n        string died;\n    }\n\n    mapping(uint => Moral) public morals;\n\n    // Store death Count\n    uint public moralsCount;\n\n    //Constructor\n    constructor () {\n        addmorals(\"Christian Hyugens\", \"July 8, 1695\");\n        addmorals(\"Isaac, Newton\", \"march 31, 1727\");\n    }\n\n    function addmorals (string memory _name, string memory _passday) public {\n        moralsCount ++;\n        morals[moralsCount] = Moral(moralsCount, _name, 0, _passday);\n    }\n\n    function payRespect (uint _id) public {\n        morals[_id].RIPCount ++;\n    }\n\n}",
  "sourcePath": "/Users/tianyuyao/Documents/CU/EE 6883/decentraltomb/contracts/Tomb.sol",
  "compiler": {
    "name": "solc",
    "version": "0.8.13+commit.abaa5c0e.Emscripten.clang"
  },
  "schemaVersion": "3.4.7",
  "updatedAt": "2022-05-11T22:40:02.457Z",
  "networkType": "ethereum",
  "devdoc": {
    "kind": "dev",
    "methods": {},
    "version": 1
  },
  "userdoc": {
    "kind": "user",
    "methods": {},
    "version": 1
  }
}